{
  "contractName": "Todo",
  "abi": [
    {
      "constant": true,
      "inputs": [
        {
          "internalType": "uint256",
          "name": "",
          "type": "uint256"
        }
      ],
      "name": "Todos",
      "outputs": [
        {
          "internalType": "uint256",
          "name": "id",
          "type": "uint256"
        },
        {
          "internalType": "string",
          "name": "name",
          "type": "string"
        },
        {
          "internalType": "string",
          "name": "description",
          "type": "string"
        },
        {
          "internalType": "string",
          "name": "status",
          "type": "string"
        },
        {
          "internalType": "uint256",
          "name": "day",
          "type": "uint256"
        }
      ],
      "payable": false,
      "stateMutability": "view",
      "type": "function"
    },
    {
      "constant": true,
      "inputs": [],
      "name": "owner",
      "outputs": [
        {
          "internalType": "address",
          "name": "",
          "type": "address"
        }
      ],
      "payable": false,
      "stateMutability": "view",
      "type": "function"
    },
    {
      "constant": true,
      "inputs": [
        {
          "internalType": "uint256",
          "name": "",
          "type": "uint256"
        }
      ],
      "name": "todos",
      "outputs": [
        {
          "internalType": "uint256",
          "name": "",
          "type": "uint256"
        }
      ],
      "payable": false,
      "stateMutability": "view",
      "type": "function"
    },
    {
      "constant": true,
      "inputs": [],
      "name": "todoNumber",
      "outputs": [
        {
          "internalType": "uint256[]",
          "name": "",
          "type": "uint256[]"
        }
      ],
      "payable": false,
      "stateMutability": "view",
      "type": "function"
    },
    {
      "constant": false,
      "inputs": [
        {
          "internalType": "uint256",
          "name": "id",
          "type": "uint256"
        },
        {
          "internalType": "string",
          "name": "name",
          "type": "string"
        },
        {
          "internalType": "string",
          "name": "desc",
          "type": "string"
        },
        {
          "internalType": "string",
          "name": "status",
          "type": "string"
        },
        {
          "internalType": "uint256",
          "name": "ndays",
          "type": "uint256"
        }
      ],
      "name": "newTodo",
      "outputs": [],
      "payable": false,
      "stateMutability": "nonpayable",
      "type": "function"
    },
    {
      "constant": true,
      "inputs": [],
      "name": "CountTod",
      "outputs": [
        {
          "internalType": "uint256",
          "name": "num",
          "type": "uint256"
        }
      ],
      "payable": false,
      "stateMutability": "view",
      "type": "function"
    },
    {
      "constant": true,
      "inputs": [
        {
          "internalType": "uint256",
          "name": "id",
          "type": "uint256"
        }
      ],
      "name": "getTodo",
      "outputs": [
        {
          "internalType": "uint256",
          "name": "_id",
          "type": "uint256"
        },
        {
          "internalType": "string",
          "name": "name",
          "type": "string"
        },
        {
          "internalType": "string",
          "name": "desc",
          "type": "string"
        },
        {
          "internalType": "string",
          "name": "status",
          "type": "string"
        },
        {
          "internalType": "uint256",
          "name": "_days",
          "type": "uint256"
        }
      ],
      "payable": false,
      "stateMutability": "view",
      "type": "function"
    }
  ],
  "bytecode": "0x6080604052336000806101000a81548173ffffffffffffffffffffffffffffffffffffffff021916908373ffffffffffffffffffffffffffffffffffffffff16021790555034801561005057600080fd5b50610d74806100606000396000f3fe608060405234801561001057600080fd5b506004361061007d5760003560e01c80639f71bac61161005b5780639f71bac614610328578063bc8bc2b414610346578063dd68afb614610388578063e6fc4fd6146105155761007d565b806326db3f581461008257806345cb4c671461027f5780638da5cb5b146102de575b600080fd5b61027d600480360360a081101561009857600080fd5b8101908080359060200190929190803590602001906401000000008111156100bf57600080fd5b8201836020820111156100d157600080fd5b803590602001918460018302840111640100000000831117156100f357600080fd5b91908080601f016020809104026020016040519081016040528093929190818152602001838380828437600081840152601f19601f8201169050808301925050505050505091929192908035906020019064010000000081111561015657600080fd5b82018360208201111561016857600080fd5b8035906020019184600183028401116401000000008311171561018a57600080fd5b91908080601f016020809104026020016040519081016040528093929190818152602001838380828437600081840152601f19601f820116905080830192505050505050509192919290803590602001906401000000008111156101ed57600080fd5b8201836020820111156101ff57600080fd5b8035906020019184600183028401116401000000008311171561022157600080fd5b91908080601f016020809104026020016040519081016040528093929190818152602001838380828437600081840152601f19601f820116905080830192505050505050509192919290803590602001909291905050506106a2565b005b61028761078c565b6040518080602001828103825283818151815260200191508051906020019060200280838360005b838110156102ca5780820151818401526020810190506102af565b505050509050019250505060405180910390f35b6102e66107e4565b604051808273ffffffffffffffffffffffffffffffffffffffff1673ffffffffffffffffffffffffffffffffffffffff16815260200191505060405180910390f35b610330610809565b6040518082815260200191505060405180910390f35b6103726004803603602081101561035c57600080fd5b810190808035906020019092919050505061081b565b6040518082815260200191505060405180910390f35b6103b46004803603602081101561039e57600080fd5b810190808035906020019092919050505061083c565b60405180868152602001806020018060200180602001858152602001848103845288818151815260200191508051906020019080838360005b838110156104085780820151818401526020810190506103ed565b50505050905090810190601f1680156104355780820380516001836020036101000a031916815260200191505b50848103835287818151815260200191508051906020019080838360005b8381101561046e578082015181840152602081019050610453565b50505050905090810190601f16801561049b5780820380516001836020036101000a031916815260200191505b50848103825286818151815260200191508051906020019080838360005b838110156104d45780820151818401526020810190506104b9565b50505050905090810190601f1680156105015780820380516001836020036101000a031916815260200191505b509850505050505050505060405180910390f35b6105416004803603602081101561052b57600080fd5b8101908080359060200190929190505050610a9c565b60405180868152602001806020018060200180602001858152602001848103845288818151815260200191508051906020019080838360005b8381101561059557808201518184015260208101905061057a565b50505050905090810190601f1680156105c25780820380516001836020036101000a031916815260200191505b50848103835287818151815260200191508051906020019080838360005b838110156105fb5780820151818401526020810190506105e0565b50505050905090810190601f1680156106285780820380516001836020036101000a031916815260200191505b50848103825286818151815260200191508051906020019080838360005b83811015610661578082015181840152602081019050610646565b50505050905090810190601f16801561068e5780820380516001836020036101000a031916815260200191505b509850505050505050505060405180910390f35b846002600087815260200190815260200160002060000181905550836002600087815260200190815260200160002060010190805190602001906106e7929190610c9a565b5082600260008781526020019081526020016000206002019080519060200190610712929190610c9a565b508160026000878152602001908152602001600020600301908051906020019061073d929190610c9a565b5080600260008781526020019081526020016000206004018190555060018590806001815401808255809150509060018203906000526020600020016000909192909190915055505050505050565b606060018054806020026020016040519081016040528092919081815260200182805480156107da57602002820191906000526020600020905b8154815260200190600101908083116107c6575b5050505050905090565b6000809054906101000a900473ffffffffffffffffffffffffffffffffffffffff1681565b60008060018054905090508091505090565b6001818154811061082857fe5b906000526020600020016000915090505481565b60006060806060600060026000878152602001908152602001600020600001546002600088815260200190815260200160002060010160026000898152602001908152602001600020600201600260008a8152602001908152602001600020600301600260008b815260200190815260200160002060040154838054600181600116156101000203166002900480601f01602080910402602001604051908101604052809291908181526020018280546001816001161561010002031660029004801561094a5780601f1061091f5761010080835404028352916020019161094a565b820191906000526020600020905b81548152906001019060200180831161092d57829003601f168201915b50505050509350828054600181600116156101000203166002900480601f0160208091040260200160405190810160405280929190818152602001828054600181600116156101000203166002900480156109e65780601f106109bb576101008083540402835291602001916109e6565b820191906000526020600020905b8154815290600101906020018083116109c957829003601f168201915b50505050509250818054600181600116156101000203166002900480601f016020809104026020016040519081016040528092919081815260200182805460018160011615610100020316600290048015610a825780601f10610a5757610100808354040283529160200191610a82565b820191906000526020600020905b815481529060010190602001808311610a6557829003601f168201915b505050505091509450945094509450945091939590929450565b6002602052806000526040600020600091509050806000015490806001018054600181600116156101000203166002900480601f016020809104026020016040519081016040528092919081815260200182805460018160011615610100020316600290048015610b4e5780601f10610b2357610100808354040283529160200191610b4e565b820191906000526020600020905b815481529060010190602001808311610b3157829003601f168201915b505050505090806002018054600181600116156101000203166002900480601f016020809104026020016040519081016040528092919081815260200182805460018160011615610100020316600290048015610bec5780601f10610bc157610100808354040283529160200191610bec565b820191906000526020600020905b815481529060010190602001808311610bcf57829003601f168201915b505050505090806003018054600181600116156101000203166002900480601f016020809104026020016040519081016040528092919081815260200182805460018160011615610100020316600290048015610c8a5780601f10610c5f57610100808354040283529160200191610c8a565b820191906000526020600020905b815481529060010190602001808311610c6d57829003601f168201915b5050505050908060040154905085565b828054600181600116156101000203166002900490600052602060002090601f016020900481019282601f10610cdb57805160ff1916838001178555610d09565b82800160010185558215610d09579182015b82811115610d08578251825591602001919060010190610ced565b5b509050610d169190610d1a565b5090565b610d3c91905b80821115610d38576000816000905550600101610d20565b5090565b9056fea265627a7a72315820814b0eab8d10feb2f6252f2102423ed03a43e9ec940f234ced8ff888dfd4f9eb64736f6c63430005100032",
  "source": "// SPDX-License-Identifier: MIT\npragma solidity >=0.4.22 <0.9.0;\n\ncontract Todo {\n  address public owner = msg.sender;\n\n     uint[] public todos;\n\n  struct todo {\n    uint id;\n    string name;\n    string description; \n    string status;\n    uint   day;\n  }\n\n  mapping (uint => todo) public Todos;\n\n  function  todoNumber()view  public  returns(uint[]  memory) {\n\n    return todos;\n    \n  }\n\n function newTodo(uint id,string memory name,string memory desc,string memory status,uint ndays) public{\n   \n   Todos[id].id =id;\n   Todos[id].name =name;\n   Todos[id].description=desc;\n   Todos[id].status=status;\n   Todos[id].day=ndays;\n   todos.push(id);\n }\n   \n   function  CountTod()public view returns(uint num) {\n     uint number = todos.length;\n     return number;\n   }\n\n  function getTodo(uint  id)public view  returns(uint _id,string memory name,string memory desc,string memory status,uint _days){\n\n   return (Todos[id].id,Todos[id].name,Todos[id].description,Todos[id].status,Todos[id].day);\n\n\n\n\n  }\n   \n\n\n\n\n\n\n\n\n\n\n\n \n}\n",
  "sourcePath": "/home/godlove/Desktop/todo/contracts/Todo.sol",
  "compiler": {
    "name": "solc",
    "version": "0.5.16+commit.9c3226ce.Emscripten.clang"
  },
  "schemaVersion": "3.4.3",
  "updatedAt": "2021-10-29T11:26:36.102Z",
  "networkType": "ethereum",
  "devdoc": {
    "methods": {}
  },
  "userdoc": {
    "methods": {}
  }
}